{
  "contractName": "Contribution",
  "abi": [
    {
      "inputs": [
        {
          "internalType": "address",
          "name": "InteractiveTokenAddress",
          "type": "address"
        }
      ],
      "stateMutability": "nonpayable",
      "type": "constructor"
    },
    {
      "inputs": [
        {
          "internalType": "address",
          "name": "",
          "type": "address"
        }
      ],
      "name": "contributionBalance",
      "outputs": [
        {
          "internalType": "uint256",
          "name": "",
          "type": "uint256"
        }
      ],
      "stateMutability": "view",
      "type": "function",
      "constant": true
    },
    {
      "inputs": [
        {
          "internalType": "address",
          "name": "tokenOwner",
          "type": "address"
        }
      ],
      "name": "exchange",
      "outputs": [],
      "stateMutability": "payable",
      "type": "function",
      "payable": true
    },
    {
      "inputs": [],
      "name": "startTime",
      "outputs": [
        {
          "internalType": "uint256",
          "name": "",
          "type": "uint256"
        }
      ],
      "stateMutability": "view",
      "type": "function",
      "constant": true
    },
    {
      "inputs": [
        {
          "internalType": "address",
          "name": "accountAddress",
          "type": "address"
        }
      ],
      "name": "balance",
      "outputs": [
        {
          "internalType": "uint256",
          "name": "",
          "type": "uint256"
        }
      ],
      "stateMutability": "view",
      "type": "function",
      "constant": true
    }
  ],
  "bytecode": "0x608060405234801561001057600080fd5b506040516107f63803806107f68339818101604052810190610032919061008e565b80600160006101000a81548173ffffffffffffffffffffffffffffffffffffffff021916908373ffffffffffffffffffffffffffffffffffffffff16021790555050610100565b600081519050610088816100e9565b92915050565b6000602082840312156100a057600080fd5b60006100ae84828501610079565b91505092915050565b60006100c2826100c9565b9050919050565b600073ffffffffffffffffffffffffffffffffffffffff82169050919050565b6100f2816100b7565b81146100fd57600080fd5b50565b6106e78061010f6000396000f3fe60806040526004361061003f5760003560e01c80632412bdb81461004457806366ae97ab1461006057806378e979251461009d578063e3d670d7146100c8575b600080fd5b61005e600480360381019061005991906103b1565b610105565b005b34801561006c57600080fd5b50610087600480360381019061008291906103b1565b61026b565b60405161009491906104c4565b60405180910390f35b3480156100a957600080fd5b506100b2610283565b6040516100bf91906104c4565b60405180910390f35b3480156100d457600080fd5b506100ef60048036038101906100ea91906103b1565b61032a565b6040516100fc91906104c4565b60405180910390f35b60003411610148576040517f08c379a000000000000000000000000000000000000000000000000000000000815260040161013f906104a4565b60405180910390fd5b6000670de0b6b3a76400003461015e9190610546565b9050806000803373ffffffffffffffffffffffffffffffffffffffff1673ffffffffffffffffffffffffffffffffffffffff16815260200190815260200160002060008282546101ae91906104f0565b92505081905550600160009054906101000a900473ffffffffffffffffffffffffffffffffffffffff1673ffffffffffffffffffffffffffffffffffffffff166323b872dd8333846040518463ffffffff1660e01b81526004016102149392919061046d565b602060405180830381600087803b15801561022e57600080fd5b505af1158015610242573d6000803e3d6000fd5b505050506040513d601f19601f8201168201806040525081019061026691906103da565b505050565b60006020528060005260406000206000915090505481565b6000600160009054906101000a900473ffffffffffffffffffffffffffffffffffffffff1673ffffffffffffffffffffffffffffffffffffffff166378e979256040518163ffffffff1660e01b815260040160206040518083038186803b1580156102ed57600080fd5b505afa158015610301573d6000803e3d6000fd5b505050506040513d601f19601f820116820180604052508101906103259190610403565b905090565b60008060008373ffffffffffffffffffffffffffffffffffffffff1673ffffffffffffffffffffffffffffffffffffffff168152602001908152602001600020549050919050565b6000813590506103818161066c565b92915050565b60008151905061039681610683565b92915050565b6000815190506103ab8161069a565b92915050565b6000602082840312156103c357600080fd5b60006103d184828501610372565b91505092915050565b6000602082840312156103ec57600080fd5b60006103fa84828501610387565b91505092915050565b60006020828403121561041557600080fd5b60006104238482850161039c565b91505092915050565b61043581610577565b82525050565b6000610448602a836104df565b91506104538261061d565b604082019050919050565b610467816105b5565b82525050565b6000606082019050610482600083018661042c565b61048f602083018561042c565b61049c604083018461045e565b949350505050565b600060208201905081810360008301526104bd8161043b565b9050919050565b60006020820190506104d9600083018461045e565b92915050565b600082825260208201905092915050565b60006104fb826105b5565b9150610506836105b5565b9250827fffffffffffffffffffffffffffffffffffffffffffffffffffffffffffffffff0382111561053b5761053a6105bf565b5b828201905092915050565b6000610551826105b5565b915061055c836105b5565b92508261056c5761056b6105ee565b5b828204905092915050565b600061058282610595565b9050919050565b60008115159050919050565b600073ffffffffffffffffffffffffffffffffffffffff82169050919050565b6000819050919050565b7f4e487b7100000000000000000000000000000000000000000000000000000000600052601160045260246000fd5b7f4e487b7100000000000000000000000000000000000000000000000000000000600052601260045260246000fd5b7f436f6e74726962757420657468657220746f2065786368616e676520666f722060008201527f49445420746f6b656e7300000000000000000000000000000000000000000000602082015250565b61067581610577565b811461068057600080fd5b50565b61068c81610589565b811461069757600080fd5b50565b6106a3816105b5565b81146106ae57600080fd5b5056fea2646970667358221220a176edcbbc7bb87127825cbbda514a52b493c4258f59b77c7ab4984e40635dd864736f6c63430008030033",
  "immutableReferences": {},
  "source": "pragma solidity ^0.8.0;\n\n/**\n* @dev Contract interacts with 'InteractiveToken' contract to allow for one to one exchange of \n* ETH to IDT token\n* \n* Stores addresses and corresponding ETH exchanged to IDT tokens\n*\n*/\ncontract Contribution {\n\n    // 'contributionBalance' stores the ETH contributed by an account\n    mapping(address => uint256) public contributionBalance;\n    // Instance of 'InteractiveToken' to access functions of the 'IDT' token contract \n    InteractiveToken interactiveToken;\n\n    /**\n    * @dev Contract constructor - 'InteractiveToken' instance is initialzed using 'address' of the \n    * deployed contract\n    *\n    *\n    */\n    constructor(address InteractiveTokenAddress) {\n\n        interactiveToken = InteractiveToken(InteractiveTokenAddress);\n    }\n\n   /**\n    * @dev function to exchange ETH to IDT tokens one to one.\n    * 'tokenOwner' - address of the account from which IDT tokens shall be exchanged with ETH tokens\n    *\n    */\n    function exchange(address tokenOwner) public payable {\n        require(msg.value > 0, 'Contribut ether to exchange for IDT tokens');\n        uint etherVal = msg.value/(1 ether);\n        contributionBalance[msg.sender] += etherVal;\n        interactiveToken.transferFrom(tokenOwner, msg.sender, etherVal);\n\n    }\n\n    /**\n    * @dev function to test 'Contribution' contract is properly interacting with 'InteractiveToken' contract.\n    * returns the 'startTime' defined in 'InteractiveToken' contract\n    *\n    */\n\n    function startTime() public view returns(uint) {\n        return interactiveToken.startTime();\n\n    }\n\n    /**\n    * @dev getter function to obtain the 'ETH' exchanged by an 'account'\n    *\n    *\n    */\n    function balance(address accountAddress) public view returns(uint256) {\n        return contributionBalance[accountAddress];\n    } \n\n}\n\n/**\n* @dev interface to define the functions 'Contribution' contract will need access \n* from the 'InteractiveToken' contract.\n*\n*/\ninterface InteractiveToken {\n\n    function transferFrom(address sender, address recipient, uint256 amount) external returns (bool);\n    function startTime() external view returns(uint);\n    function endTime() external view returns(uint);\n}\n",
  "sourcePath": "/Users/Raj/Documents/Programming/Interview_challenge/interactiveio/contracts/Contribution.sol",
  "compiler": {
    "name": "solc",
    "version": "0.8.3+commit.8d00100c.Emscripten.clang"
  },
  "schemaVersion": "3.3.4",
  "updatedAt": "2021-04-19T02:08:02.817Z",
  "networkType": "ethereum",
  "devdoc": {
    "details": "Contract interacts with 'InteractiveToken' contract to allow for one to one exchange of  ETH to IDT token  Stores addresses and corresponding ETH exchanged to IDT tokens",
    "kind": "dev",
    "methods": {
      "balance(address)": {
        "details": "getter function to obtain the 'ETH' exchanged by an 'account'"
      },
      "constructor": {
        "details": "Contract constructor - 'InteractiveToken' instance is initialzed using 'address' of the  deployed contract"
      },
      "exchange(address)": {
        "details": "function to exchange ETH to IDT tokens one to one. 'tokenOwner' - address of the account from which IDT tokens shall be exchanged with ETH tokens"
      },
      "startTime()": {
        "details": "function to test 'Contribution' contract is properly interacting with 'InteractiveToken' contract. returns the 'startTime' defined in 'InteractiveToken' contract"
      }
    },
    "version": 1
  },
  "userdoc": {
    "kind": "user",
    "methods": {},
    "version": 1
  }
}