{
  "contractName": "InteractiveToken",
  "abi": [
    {
      "inputs": [
        {
          "internalType": "uint256",
          "name": "_startTime",
          "type": "uint256"
        },
        {
          "internalType": "uint256",
          "name": "_endTime",
          "type": "uint256"
        }
      ],
      "stateMutability": "nonpayable",
      "type": "constructor"
    },
    {
      "anonymous": false,
      "inputs": [
        {
          "indexed": true,
          "internalType": "address",
          "name": "owner",
          "type": "address"
        },
        {
          "indexed": true,
          "internalType": "address",
          "name": "spender",
          "type": "address"
        },
        {
          "indexed": false,
          "internalType": "uint256",
          "name": "value",
          "type": "uint256"
        }
      ],
      "name": "Approval",
      "type": "event"
    },
    {
      "anonymous": false,
      "inputs": [
        {
          "indexed": true,
          "internalType": "address",
          "name": "from",
          "type": "address"
        },
        {
          "indexed": true,
          "internalType": "address",
          "name": "to",
          "type": "address"
        },
        {
          "indexed": false,
          "internalType": "uint256",
          "name": "value",
          "type": "uint256"
        }
      ],
      "name": "Transfer",
      "type": "event"
    },
    {
      "inputs": [],
      "name": "INITIAL_SUPPLY",
      "outputs": [
        {
          "internalType": "uint256",
          "name": "",
          "type": "uint256"
        }
      ],
      "stateMutability": "view",
      "type": "function",
      "constant": true
    },
    {
      "inputs": [
        {
          "internalType": "address",
          "name": "owner",
          "type": "address"
        },
        {
          "internalType": "address",
          "name": "spender",
          "type": "address"
        }
      ],
      "name": "allowance",
      "outputs": [
        {
          "internalType": "uint256",
          "name": "",
          "type": "uint256"
        }
      ],
      "stateMutability": "view",
      "type": "function",
      "constant": true
    },
    {
      "inputs": [
        {
          "internalType": "address",
          "name": "spender",
          "type": "address"
        },
        {
          "internalType": "uint256",
          "name": "amount",
          "type": "uint256"
        }
      ],
      "name": "approve",
      "outputs": [
        {
          "internalType": "bool",
          "name": "",
          "type": "bool"
        }
      ],
      "stateMutability": "nonpayable",
      "type": "function"
    },
    {
      "inputs": [
        {
          "internalType": "address",
          "name": "account",
          "type": "address"
        }
      ],
      "name": "balanceOf",
      "outputs": [
        {
          "internalType": "uint256",
          "name": "",
          "type": "uint256"
        }
      ],
      "stateMutability": "view",
      "type": "function",
      "constant": true
    },
    {
      "inputs": [],
      "name": "decimals",
      "outputs": [
        {
          "internalType": "uint8",
          "name": "",
          "type": "uint8"
        }
      ],
      "stateMutability": "view",
      "type": "function",
      "constant": true
    },
    {
      "inputs": [
        {
          "internalType": "address",
          "name": "spender",
          "type": "address"
        },
        {
          "internalType": "uint256",
          "name": "subtractedValue",
          "type": "uint256"
        }
      ],
      "name": "decreaseAllowance",
      "outputs": [
        {
          "internalType": "bool",
          "name": "",
          "type": "bool"
        }
      ],
      "stateMutability": "nonpayable",
      "type": "function"
    },
    {
      "inputs": [],
      "name": "endTime",
      "outputs": [
        {
          "internalType": "uint256",
          "name": "",
          "type": "uint256"
        }
      ],
      "stateMutability": "view",
      "type": "function",
      "constant": true
    },
    {
      "inputs": [
        {
          "internalType": "address",
          "name": "spender",
          "type": "address"
        },
        {
          "internalType": "uint256",
          "name": "addedValue",
          "type": "uint256"
        }
      ],
      "name": "increaseAllowance",
      "outputs": [
        {
          "internalType": "bool",
          "name": "",
          "type": "bool"
        }
      ],
      "stateMutability": "nonpayable",
      "type": "function"
    },
    {
      "inputs": [],
      "name": "name",
      "outputs": [
        {
          "internalType": "string",
          "name": "",
          "type": "string"
        }
      ],
      "stateMutability": "view",
      "type": "function",
      "constant": true
    },
    {
      "inputs": [],
      "name": "startTime",
      "outputs": [
        {
          "internalType": "uint256",
          "name": "",
          "type": "uint256"
        }
      ],
      "stateMutability": "view",
      "type": "function",
      "constant": true
    },
    {
      "inputs": [],
      "name": "symbol",
      "outputs": [
        {
          "internalType": "string",
          "name": "",
          "type": "string"
        }
      ],
      "stateMutability": "view",
      "type": "function",
      "constant": true
    },
    {
      "inputs": [],
      "name": "totalSupply",
      "outputs": [
        {
          "internalType": "uint256",
          "name": "",
          "type": "uint256"
        }
      ],
      "stateMutability": "view",
      "type": "function",
      "constant": true
    },
    {
      "inputs": [],
      "name": "timeFunction",
      "outputs": [
        {
          "internalType": "uint256",
          "name": "",
          "type": "uint256"
        }
      ],
      "stateMutability": "view",
      "type": "function",
      "constant": true
    },
    {
      "inputs": [
        {
          "internalType": "address",
          "name": "recipient",
          "type": "address"
        },
        {
          "internalType": "uint256",
          "name": "amount",
          "type": "uint256"
        }
      ],
      "name": "transfer",
      "outputs": [
        {
          "internalType": "bool",
          "name": "",
          "type": "bool"
        }
      ],
      "stateMutability": "nonpayable",
      "type": "function"
    },
    {
      "inputs": [
        {
          "internalType": "address",
          "name": "sender",
          "type": "address"
        },
        {
          "internalType": "address",
          "name": "recipient",
          "type": "address"
        },
        {
          "internalType": "uint256",
          "name": "amount",
          "type": "uint256"
        }
      ],
      "name": "transferFrom",
      "outputs": [
        {
          "internalType": "bool",
          "name": "",
          "type": "bool"
        }
      ],
      "stateMutability": "nonpayable",
      "type": "function"
    }
  ],
  "bytecode": "0x6080604052620f42406005553480156200001857600080fd5b5060405162001b4b38038062001b4b83398181016040528101906200003e919062000339565b6040518060400160405280601181526020017f496e74657261637469766520546f6b656e0000000000000000000000000000008152506040518060400160405280600381526020017f49445400000000000000000000000000000000000000000000000000000000008152508160039080519060200190620000c292919062000272565b508060049080519060200190620000db92919062000272565b505050620000f2336005546200010860201b60201c565b8160068190555080600781905550505062000540565b600073ffffffffffffffffffffffffffffffffffffffff168273ffffffffffffffffffffffffffffffffffffffff1614156200017b576040517f08c379a00000000000000000000000000000000000000000000000000000000081526004016200017290620003b2565b60405180910390fd5b6200018f600083836200026d60201b60201c565b8060026000828254620001a3919062000402565b92505081905550806000808473ffffffffffffffffffffffffffffffffffffffff1673ffffffffffffffffffffffffffffffffffffffff1681526020019081526020016000206000828254620001fa919062000402565b925050819055508173ffffffffffffffffffffffffffffffffffffffff16600073ffffffffffffffffffffffffffffffffffffffff167fddf252ad1be2c89b69c2b068fc378daa952ba7f163c4a11628f55a4df523b3ef83604051620002619190620003d4565b60405180910390a35050565b505050565b828054620002809062000469565b90600052602060002090601f016020900481019282620002a45760008555620002f0565b82601f10620002bf57805160ff1916838001178555620002f0565b82800160010185558215620002f0579182015b82811115620002ef578251825591602001919060010190620002d2565b5b509050620002ff919062000303565b5090565b5b808211156200031e57600081600090555060010162000304565b5090565b600081519050620003338162000526565b92915050565b600080604083850312156200034d57600080fd5b60006200035d8582860162000322565b9250506020620003708582860162000322565b9150509250929050565b600062000389601f83620003f1565b91506200039682620004fd565b602082019050919050565b620003ac816200045f565b82525050565b60006020820190508181036000830152620003cd816200037a565b9050919050565b6000602082019050620003eb6000830184620003a1565b92915050565b600082825260208201905092915050565b60006200040f826200045f565b91506200041c836200045f565b9250827fffffffffffffffffffffffffffffffffffffffffffffffffffffffffffffffff038211156200045457620004536200049f565b5b828201905092915050565b6000819050919050565b600060028204905060018216806200048257607f821691505b60208210811415620004995762000498620004ce565b5b50919050565b7f4e487b7100000000000000000000000000000000000000000000000000000000600052601160045260246000fd5b7f4e487b7100000000000000000000000000000000000000000000000000000000600052602260045260246000fd5b7f45524332303a206d696e7420746f20746865207a65726f206164647265737300600082015250565b62000531816200045f565b81146200053d57600080fd5b50565b6115fb80620005506000396000f3fe608060405234801561001057600080fd5b50600436106100f55760003560e01c80633950935111610097578063a457c2d711610066578063a457c2d71461028c578063a9059cbb146102bc578063b2d5a25d146102ec578063dd62ed3e1461030a576100f5565b806339509351146101f057806370a082311461022057806378e979251461025057806395d89b411461026e576100f5565b806323b872dd116100d357806323b872dd146101665780632ff2e9dc14610196578063313ce567146101b45780633197cbb6146101d2576100f5565b806306fdde03146100fa578063095ea7b31461011857806318160ddd14610148575b600080fd5b61010261033a565b60405161010f9190610ff8565b60405180910390f35b610132600480360381019061012d9190610e23565b6103cc565b60405161013f9190610fdd565b60405180910390f35b6101506103ea565b60405161015d919061111a565b60405180910390f35b610180600480360381019061017b9190610dd4565b6103f4565b60405161018d9190610fdd565b60405180910390f35b61019e61045a565b6040516101ab919061111a565b60405180910390f35b6101bc610460565b6040516101c99190611135565b60405180910390f35b6101da610469565b6040516101e7919061111a565b60405180910390f35b61020a60048036038101906102059190610e23565b61046f565b6040516102179190610fdd565b60405180910390f35b61023a60048036038101906102359190610d6f565b61051b565b604051610247919061111a565b60405180910390f35b610258610563565b604051610265919061111a565b60405180910390f35b610276610569565b6040516102839190610ff8565b60405180910390f35b6102a660048036038101906102a19190610e23565b6105fb565b6040516102b39190610fdd565b60405180910390f35b6102d660048036038101906102d19190610e23565b6106ef565b6040516102e39190610fdd565b60405180910390f35b6102f461075e565b604051610301919061111a565b60405180910390f35b610324600480360381019061031f9190610d98565b610766565b604051610331919061111a565b60405180910390f35b6060600380546103499061127e565b80601f01602080910402602001604051908101604052809291908181526020018280546103759061127e565b80156103c25780601f10610397576101008083540402835291602001916103c2565b820191906000526020600020905b8154815290600101906020018083116103a557829003601f168201915b5050505050905090565b60006103e06103d96107ed565b84846107f5565b6001905092915050565b6000600254905090565b600060065442118015610408575060075442105b610447576040517f08c379a000000000000000000000000000000000000000000000000000000000815260040161043e9061107a565b60405180910390fd5b6104528484846109c0565b509392505050565b60055481565b60006012905090565b60075481565b600061051161047c6107ed565b84846001600061048a6107ed565b73ffffffffffffffffffffffffffffffffffffffff1673ffffffffffffffffffffffffffffffffffffffff16815260200190815260200160002060008873ffffffffffffffffffffffffffffffffffffffff1673ffffffffffffffffffffffffffffffffffffffff1681526020019081526020016000205461050c919061116c565b6107f5565b6001905092915050565b60008060008373ffffffffffffffffffffffffffffffffffffffff1673ffffffffffffffffffffffffffffffffffffffff168152602001908152602001600020549050919050565b60065481565b6060600480546105789061127e565b80601f01602080910402602001604051908101604052809291908181526020018280546105a49061127e565b80156105f15780601f106105c6576101008083540402835291602001916105f1565b820191906000526020600020905b8154815290600101906020018083116105d457829003601f168201915b5050505050905090565b6000806001600061060a6107ed565b73ffffffffffffffffffffffffffffffffffffffff1673ffffffffffffffffffffffffffffffffffffffff16815260200190815260200160002060008573ffffffffffffffffffffffffffffffffffffffff1673ffffffffffffffffffffffffffffffffffffffff168152602001908152602001600020549050828110156106c7576040517f08c379a00000000000000000000000000000000000000000000000000000000081526004016106be906110fa565b60405180910390fd5b6106e46106d26107ed565b8585846106df91906111c2565b6107f5565b600191505092915050565b600060065442118015610703575060075442105b610742576040517f08c379a00000000000000000000000000000000000000000000000000000000081526004016107399061107a565b60405180910390fd5b61075461074d6107ed565b8484610ac1565b6001905092915050565b600042905090565b6000600160008473ffffffffffffffffffffffffffffffffffffffff1673ffffffffffffffffffffffffffffffffffffffff16815260200190815260200160002060008373ffffffffffffffffffffffffffffffffffffffff1673ffffffffffffffffffffffffffffffffffffffff16815260200190815260200160002054905092915050565b600033905090565b600073ffffffffffffffffffffffffffffffffffffffff168373ffffffffffffffffffffffffffffffffffffffff161415610865576040517f08c379a000000000000000000000000000000000000000000000000000000000815260040161085c906110da565b60405180910390fd5b600073ffffffffffffffffffffffffffffffffffffffff168273ffffffffffffffffffffffffffffffffffffffff1614156108d5576040517f08c379a00000000000000000000000000000000000000000000000000000000081526004016108cc9061103a565b60405180910390fd5b80600160008573ffffffffffffffffffffffffffffffffffffffff1673ffffffffffffffffffffffffffffffffffffffff16815260200190815260200160002060008473ffffffffffffffffffffffffffffffffffffffff1673ffffffffffffffffffffffffffffffffffffffff168152602001908152602001600020819055508173ffffffffffffffffffffffffffffffffffffffff168373ffffffffffffffffffffffffffffffffffffffff167f8c5be1e5ebec7d5bd14f71427d1e84f3dd0314c0f7b2291e5b200ac8c7c3b925836040516109b3919061111a565b60405180910390a3505050565b60006109cd848484610ac1565b6000600160008673ffffffffffffffffffffffffffffffffffffffff1673ffffffffffffffffffffffffffffffffffffffff1681526020019081526020016000206000610a186107ed565b73ffffffffffffffffffffffffffffffffffffffff1673ffffffffffffffffffffffffffffffffffffffff16815260200190815260200160002054905082811015610a98576040517f08c379a0000000000000000000000000000000000000000000000000000000008152600401610a8f9061109a565b60405180910390fd5b610ab585610aa46107ed565b8584610ab091906111c2565b6107f5565b60019150509392505050565b600073ffffffffffffffffffffffffffffffffffffffff168373ffffffffffffffffffffffffffffffffffffffff161415610b31576040517f08c379a0000000000000000000000000000000000000000000000000000000008152600401610b28906110ba565b60405180910390fd5b600073ffffffffffffffffffffffffffffffffffffffff168273ffffffffffffffffffffffffffffffffffffffff161415610ba1576040517f08c379a0000000000000000000000000000000000000000000000000000000008152600401610b989061101a565b60405180910390fd5b610bac838383610d40565b60008060008573ffffffffffffffffffffffffffffffffffffffff1673ffffffffffffffffffffffffffffffffffffffff16815260200190815260200160002054905081811015610c32576040517f08c379a0000000000000000000000000000000000000000000000000000000008152600401610c299061105a565b60405180910390fd5b8181610c3e91906111c2565b6000808673ffffffffffffffffffffffffffffffffffffffff1673ffffffffffffffffffffffffffffffffffffffff16815260200190815260200160002081905550816000808573ffffffffffffffffffffffffffffffffffffffff1673ffffffffffffffffffffffffffffffffffffffff1681526020019081526020016000206000828254610cce919061116c565b925050819055508273ffffffffffffffffffffffffffffffffffffffff168473ffffffffffffffffffffffffffffffffffffffff167fddf252ad1be2c89b69c2b068fc378daa952ba7f163c4a11628f55a4df523b3ef84604051610d32919061111a565b60405180910390a350505050565b505050565b600081359050610d5481611597565b92915050565b600081359050610d69816115ae565b92915050565b600060208284031215610d8157600080fd5b6000610d8f84828501610d45565b91505092915050565b60008060408385031215610dab57600080fd5b6000610db985828601610d45565b9250506020610dca85828601610d45565b9150509250929050565b600080600060608486031215610de957600080fd5b6000610df786828701610d45565b9350506020610e0886828701610d45565b9250506040610e1986828701610d5a565b9150509250925092565b60008060408385031215610e3657600080fd5b6000610e4485828601610d45565b9250506020610e5585828601610d5a565b9150509250929050565b610e6881611208565b82525050565b6000610e7982611150565b610e83818561115b565b9350610e9381856020860161124b565b610e9c8161130e565b840191505092915050565b6000610eb460238361115b565b9150610ebf8261131f565b604082019050919050565b6000610ed760228361115b565b9150610ee28261136e565b604082019050919050565b6000610efa60268361115b565b9150610f05826113bd565b604082019050919050565b6000610f1d60308361115b565b9150610f288261140c565b604082019050919050565b6000610f4060288361115b565b9150610f4b8261145b565b604082019050919050565b6000610f6360258361115b565b9150610f6e826114aa565b604082019050919050565b6000610f8660248361115b565b9150610f91826114f9565b604082019050919050565b6000610fa960258361115b565b9150610fb482611548565b604082019050919050565b610fc881611234565b82525050565b610fd78161123e565b82525050565b6000602082019050610ff26000830184610e5f565b92915050565b600060208201905081810360008301526110128184610e6e565b905092915050565b6000602082019050818103600083015261103381610ea7565b9050919050565b6000602082019050818103600083015261105381610eca565b9050919050565b6000602082019050818103600083015261107381610eed565b9050919050565b6000602082019050818103600083015261109381610f10565b9050919050565b600060208201905081810360008301526110b381610f33565b9050919050565b600060208201905081810360008301526110d381610f56565b9050919050565b600060208201905081810360008301526110f381610f79565b9050919050565b6000602082019050818103600083015261111381610f9c565b9050919050565b600060208201905061112f6000830184610fbf565b92915050565b600060208201905061114a6000830184610fce565b92915050565b600081519050919050565b600082825260208201905092915050565b600061117782611234565b915061118283611234565b9250827fffffffffffffffffffffffffffffffffffffffffffffffffffffffffffffffff038211156111b7576111b66112b0565b5b828201905092915050565b60006111cd82611234565b91506111d883611234565b9250828210156111eb576111ea6112b0565b5b828203905092915050565b600061120182611214565b9050919050565b60008115159050919050565b600073ffffffffffffffffffffffffffffffffffffffff82169050919050565b6000819050919050565b600060ff82169050919050565b60005b8381101561126957808201518184015260208101905061124e565b83811115611278576000848401525b50505050565b6000600282049050600182168061129657607f821691505b602082108114156112aa576112a96112df565b5b50919050565b7f4e487b7100000000000000000000000000000000000000000000000000000000600052601160045260246000fd5b7f4e487b7100000000000000000000000000000000000000000000000000000000600052602260045260246000fd5b6000601f19601f8301169050919050565b7f45524332303a207472616e7366657220746f20746865207a65726f206164647260008201527f6573730000000000000000000000000000000000000000000000000000000000602082015250565b7f45524332303a20617070726f766520746f20746865207a65726f20616464726560008201527f7373000000000000000000000000000000000000000000000000000000000000602082015250565b7f45524332303a207472616e7366657220616d6f756e742065786365656473206260008201527f616c616e63650000000000000000000000000000000000000000000000000000602082015250565b7f43757272656e742074696d65206e6f742077697468696e20616c6c6f7765642060008201527f74696d6520746f207472616e7366657200000000000000000000000000000000602082015250565b7f45524332303a207472616e7366657220616d6f756e742065786365656473206160008201527f6c6c6f77616e6365000000000000000000000000000000000000000000000000602082015250565b7f45524332303a207472616e736665722066726f6d20746865207a65726f20616460008201527f6472657373000000000000000000000000000000000000000000000000000000602082015250565b7f45524332303a20617070726f76652066726f6d20746865207a65726f2061646460008201527f7265737300000000000000000000000000000000000000000000000000000000602082015250565b7f45524332303a2064656372656173656420616c6c6f77616e63652062656c6f7760008201527f207a65726f000000000000000000000000000000000000000000000000000000602082015250565b6115a0816111f6565b81146115ab57600080fd5b50565b6115b781611234565b81146115c257600080fd5b5056fea2646970667358221220ed25530cf746207d9fd74caad5fedf32eb22b9d3e3a2d27b45bf062e14692be264736f6c63430008030033",
  "immutableReferences": {},
  "source": "pragma solidity ^0.8.0;\n\n\nimport \"@openzeppelin/contracts/token/ERC20/ERC20.sol\"; \n\n/**\n* @dev Extends ERC20 Contract to create token 'Interactive Token' with symbol 'IDT'\n* Upstate Interactive Smart Contract Developer Position Coding Challenge\n*\n* This contract creates a ERC 20 token. These tokens are allowed to be transferred betweeen\n* certain predefined allowed timeframe.\n* Initial supply = 1000,000. Contract creator is assigned all initial token created.\n*/\ncontract InteractiveToken is ERC20 {\n\n    uint public INITIAL_SUPPLY = 1000000; //Set total supply of tokens\n    //startTime - the unix time from epoch in seconds after which contract will allow token transfer\n    uint public startTime; \n    //endTime - the unix time from epoch in seconds beofre which contract is allowed to do token transfers\n    uint public endTime;\n\n    /**\n    * @dev Contract constructor - Token name and symbol are initialized\n    *\n    * startTime and endTime parameters are initialized \n    */\n    constructor(uint _startTime, uint _endTime) ERC20(\"Interactive Token\", \"IDT\") {\n\n        _mint(msg.sender, INITIAL_SUPPLY);\n        startTime = _startTime;\n        endTime = _endTime;\n\n    }\n\n\n    /**\n    * @dev getter function to obtain current block timestamp. \n    *\n    * Helps with testing the contract\n    */\n    function timeFunction() public view returns(uint) {\n        return block.timestamp;\n    }\n\n    /**\n     * @dev Moves tokens `amount` from `msg.sender` to `recipient`.\n     *\n     * overrides the ERC20 'transfer' function adds additional functionality\n     * tokens are only transferred within the predefined time band defined by startTime and endTime\n     *\n     */\n    function transfer(address recipient, uint256 amount) public override returns (bool) {\n        require(block.timestamp > startTime && block.timestamp < endTime, 'Current time not within allowed time to transfer');\n        _transfer(_msgSender(), recipient, amount);\n        return true;\n    }\n\n    /**\n     * @dev See {IERC20-transferFrom}.\n     *\n     * overrides the ERC20 'transferFrom' function and adds additional functionality\n     * tokens are only transferred within the predefined time band defined by startTime and endTime\n     *\n     */\n\n    function transferFrom(address sender, address recipient, uint256 amount) public override returns (bool) {\n        require(block.timestamp > startTime && block.timestamp < endTime, 'Current time not within allowed time to transfer');\n        super.transferFrom(sender, recipient, amount);\n    }\n\n\n\n}",
  "sourcePath": "/Users/Raj/Documents/Programming/Interview_challenge/interactiveio/contracts/InteractiveToken.sol",
  "compiler": {
    "name": "solc",
    "version": "0.8.3+commit.8d00100c.Emscripten.clang"
  },
  "schemaVersion": "3.3.4",
  "updatedAt": "2021-04-19T02:08:02.801Z",
  "networkType": "ethereum",
  "devdoc": {
    "details": "Extends ERC20 Contract to create token 'Interactive Token' with symbol 'IDT' Upstate Interactive Smart Contract Developer Position Coding Challenge This contract creates a ERC 20 token. These tokens are allowed to be transferred betweeen certain predefined allowed timeframe. Initial supply = 1000,000. Contract creator is assigned all initial token created.",
    "kind": "dev",
    "methods": {
      "allowance(address,address)": {
        "details": "See {IERC20-allowance}."
      },
      "approve(address,uint256)": {
        "details": "See {IERC20-approve}. Requirements: - `spender` cannot be the zero address."
      },
      "balanceOf(address)": {
        "details": "See {IERC20-balanceOf}."
      },
      "constructor": {
        "details": "Contract constructor - Token name and symbol are initialized startTime and endTime parameters are initialized "
      },
      "decimals()": {
        "details": "Returns the number of decimals used to get its user representation. For example, if `decimals` equals `2`, a balance of `505` tokens should be displayed to a user as `5,05` (`505 / 10 ** 2`). Tokens usually opt for a value of 18, imitating the relationship between Ether and Wei. This is the value {ERC20} uses, unless this function is overloaded; NOTE: This information is only used for _display_ purposes: it in no way affects any of the arithmetic of the contract, including {IERC20-balanceOf} and {IERC20-transfer}."
      },
      "decreaseAllowance(address,uint256)": {
        "details": "Atomically decreases the allowance granted to `spender` by the caller. This is an alternative to {approve} that can be used as a mitigation for problems described in {IERC20-approve}. Emits an {Approval} event indicating the updated allowance. Requirements: - `spender` cannot be the zero address. - `spender` must have allowance for the caller of at least `subtractedValue`."
      },
      "increaseAllowance(address,uint256)": {
        "details": "Atomically increases the allowance granted to `spender` by the caller. This is an alternative to {approve} that can be used as a mitigation for problems described in {IERC20-approve}. Emits an {Approval} event indicating the updated allowance. Requirements: - `spender` cannot be the zero address."
      },
      "name()": {
        "details": "Returns the name of the token."
      },
      "symbol()": {
        "details": "Returns the symbol of the token, usually a shorter version of the name."
      },
      "timeFunction()": {
        "details": "getter function to obtain current block timestamp.  Helps with testing the contract"
      },
      "totalSupply()": {
        "details": "See {IERC20-totalSupply}."
      },
      "transfer(address,uint256)": {
        "details": "Moves tokens `amount` from `msg.sender` to `recipient`. overrides the ERC20 'transfer' function adds additional functionality tokens are only transferred within the predefined time band defined by startTime and endTime"
      },
      "transferFrom(address,address,uint256)": {
        "details": "See {IERC20-transferFrom}. overrides the ERC20 'transferFrom' function and adds additional functionality tokens are only transferred within the predefined time band defined by startTime and endTime"
      }
    },
    "version": 1
  },
  "userdoc": {
    "kind": "user",
    "methods": {},
    "version": 1
  }
}